{
  "_format": "hh-sol-artifact-1",
  "contractName": "Posting",
  "sourceName": "contracts/Posting.sol",
  "abi": [
    {
      "inputs": [],
      "stateMutability": "payable",
      "type": "constructor"
    },
    {
      "anonymous": false,
      "inputs": [
        {
          "indexed": true,
          "internalType": "address",
          "name": "from",
          "type": "address"
        },
        {
          "indexed": false,
          "internalType": "uint256",
          "name": "timestamp",
          "type": "uint256"
        },
        {
          "indexed": false,
          "internalType": "string",
          "name": "message",
          "type": "string"
        }
      ],
      "name": "NewPost",
      "type": "event"
    },
    {
      "inputs": [],
      "name": "getAllPosts",
      "outputs": [
        {
          "components": [
            {
              "internalType": "uint256",
              "name": "id",
              "type": "uint256"
            },
            {
              "internalType": "address",
              "name": "user",
              "type": "address"
            },
            {
              "internalType": "string",
              "name": "message",
              "type": "string"
            },
            {
              "internalType": "uint256",
              "name": "timestamp",
              "type": "uint256"
            },
            {
              "internalType": "uint256",
              "name": "totalLikes",
              "type": "uint256"
            }
          ],
          "internalType": "struct Posting.Post[]",
          "name": "",
          "type": "tuple[]"
        }
      ],
      "stateMutability": "view",
      "type": "function"
    },
    {
      "inputs": [],
      "name": "getTotalPosts",
      "outputs": [
        {
          "internalType": "uint256",
          "name": "",
          "type": "uint256"
        }
      ],
      "stateMutability": "view",
      "type": "function"
    },
    {
      "inputs": [
        {
          "internalType": "address",
          "name": "",
          "type": "address"
        }
      ],
      "name": "lastPostedAt",
      "outputs": [
        {
          "internalType": "uint256",
          "name": "",
          "type": "uint256"
        }
      ],
      "stateMutability": "view",
      "type": "function"
    },
    {
      "inputs": [
        {
          "internalType": "uint256",
          "name": "",
          "type": "uint256"
        },
        {
          "internalType": "address",
          "name": "",
          "type": "address"
        }
      ],
      "name": "likedUsers",
      "outputs": [
        {
          "internalType": "address",
          "name": "",
          "type": "address"
        }
      ],
      "stateMutability": "view",
      "type": "function"
    },
    {
      "inputs": [
        {
          "internalType": "string",
          "name": "_message",
          "type": "string"
        }
      ],
      "name": "post",
      "outputs": [],
      "stateMutability": "nonpayable",
      "type": "function"
    },
    {
      "inputs": [
        {
          "internalType": "uint256",
          "name": "id",
          "type": "uint256"
        }
      ],
      "name": "pushLikeButton",
      "outputs": [],
      "stateMutability": "nonpayable",
      "type": "function"
    }
  ],
  "bytecode": "0x60806040526200004f6040518060400160405280601c81526020017f506f7374506f7274616c202d20536d61727420436f6e747261637421000000008152506200007760201b62000b391760201c565b606442446200005f9190620001c4565b6200006b919062000261565b60028190555062000308565b62000117816040516024016200008e919062000184565b6040516020818303038152906040527f41304fac000000000000000000000000000000000000000000000000000000007bffffffffffffffffffffffffffffffffffffffffffffffffffffffff19166020820180517bffffffffffffffffffffffffffffffffffffffffffffffffffffffff83818316178352505050506200011a60201b60201c565b50565b60008151905060006a636f6e736f6c652e6c6f679050602083016000808483855afa5050505050565b60006200015082620001a8565b6200015c8185620001b3565b93506200016e8185602086016200022b565b6200017981620002f7565b840191505092915050565b60006020820190508181036000830152620001a0818462000143565b905092915050565b600081519050919050565b600082825260208201905092915050565b6000620001d18262000221565b9150620001de8362000221565b9250827fffffffffffffffffffffffffffffffffffffffffffffffffffffffffffffffff0382111562000216576200021562000299565b5b828201905092915050565b6000819050919050565b60005b838110156200024b5780820151818401526020810190506200022e565b838111156200025b576000848401525b50505050565b60006200026e8262000221565b91506200027b8362000221565b9250826200028e576200028d620002c8565b5b828206905092915050565b7f4e487b7100000000000000000000000000000000000000000000000000000000600052601160045260246000fd5b7f4e487b7100000000000000000000000000000000000000000000000000000000600052601260045260246000fd5b6000601f19601f8301169050919050565b6118bf80620003186000396000f3fe608060405234801561001057600080fd5b50600436106100625760003560e01c8063305611001461006757806351493c4f146100855780635fe226b4146100b55780638ee93cf3146100d3578063956c5477146100ef578063efb05dae1461011f575b600080fd5b61006f61013b565b60405161007c9190611284565b60405180910390f35b61009f600480360381019061009a9190610f4c565b610380565b6040516100ac91906113cd565b60405180910390f35b6100bd610398565b6040516100ca91906113cd565b60405180910390f35b6100ed60048036038101906100e89190610f75565b6103e3565b005b61010960048036038101906101049190610fdf565b610806565b6040516101169190611269565b60405180910390f35b61013960048036038101906101349190610fb6565b610848565b005b6060600060015467ffffffffffffffff811115610181577f4e487b7100000000000000000000000000000000000000000000000000000000600052604160045260246000fd5b6040519080825280602002602001820160405280156101ba57816020015b6101a7610dd2565b81526020019060019003908161019f5790505b50905060005b6001548110156103785760008181548110610204577f4e487b7100000000000000000000000000000000000000000000000000000000600052603260045260246000fd5b90600052602060002090600502016040518060a0016040529081600082015481526020016001820160009054906101000a900473ffffffffffffffffffffffffffffffffffffffff1673ffffffffffffffffffffffffffffffffffffffff1673ffffffffffffffffffffffffffffffffffffffff16815260200160028201805461028d906115e7565b80601f01602080910402602001604051908101604052809291908181526020018280546102b9906115e7565b80156103065780601f106102db57610100808354040283529160200191610306565b820191906000526020600020905b8154815290600101906020018083116102e957829003601f168201915b505050505081526020016003820154815260200160048201548152505082828151811061035c577f4e487b7100000000000000000000000000000000000000000000000000000000600052603260045260246000fd5b6020026020010181905250806103719061164a565b90506101c0565b508091505090565b60036020528060005260406000206000915090505481565b60006103db6040518060400160405280600f81526020017f746f74616c20706f7374733a2025640000000000000000000000000000000000815250600154610bd2565b600154905090565b426000600360003373ffffffffffffffffffffffffffffffffffffffff1673ffffffffffffffffffffffffffffffffffffffff1681526020019081526020016000205461043091906114df565b10610470576040517f08c379a00000000000000000000000000000000000000000000000000000000081526004016104679061136d565b60405180910390fd5b42600360003373ffffffffffffffffffffffffffffffffffffffff1673ffffffffffffffffffffffffffffffffffffffff1681526020019081526020016000208190555060006040518060a0016040528060015481526020013373ffffffffffffffffffffffffffffffffffffffff168152602001838152602001428152602001600081525090806001815401808255809150506001900390600052602060002090600502016000909190919091506000820151816000015560208201518160010160006101000a81548173ffffffffffffffffffffffffffffffffffffffff021916908373ffffffffffffffffffffffffffffffffffffffff160217905550604082015181600201908051906020019061058c929190610e17565b506060820151816003015560808201518160040155505060018060008282546105b591906114df565b925050819055506105fc6040518060400160405280601681526020017f257320706f73746420772f206d777373616765202573000000000000000000008152503383610c6e565b6064600254424461060d91906114df565b61061791906114df565b6106219190611693565b6002819055506106686040518060400160405280601681526020017f52616e646f6d20232067656e6572617465643a20256400000000000000000000815250600254610bd2565b603260025411610773576000655af3107a40009050478111156106c0576040517f08c379a00000000000000000000000000000000000000000000000000000000081526004016106b79061138d565b60405180910390fd5b60003373ffffffffffffffffffffffffffffffffffffffff16826040516106e690611254565b60006040518083038185875af1925050503d8060008114610723576040519150601f19603f3d011682016040523d82523d6000602084013e610728565b606091505b505090508061076c576040517f08c379a0000000000000000000000000000000000000000000000000000000008152600401610763906113ad565b60405180910390fd5b50506107b3565b6107b26040518060400160405280600f81526020017f257320646964206e6f742077696e2e000000000000000000000000000000000081525033610d0d565b5b3373ffffffffffffffffffffffffffffffffffffffff167fd8c86c7877c3f1f8a40af6cf64a11fe867af887f2a1ad31aac849e36730425b042836040516107fb9291906113e8565b60405180910390a250565b60046020528160005260406000206020528060005260406000206000915091509054906101000a900473ffffffffffffffffffffffffffffffffffffffff1681565b3373ffffffffffffffffffffffffffffffffffffffff166004600083815260200190815260200160002060003373ffffffffffffffffffffffffffffffffffffffff1673ffffffffffffffffffffffffffffffffffffffff16815260200190815260200160002060009054906101000a900473ffffffffffffffffffffffffffffffffffffffff1673ffffffffffffffffffffffffffffffffffffffff161415610a0557600160008281548110610928577f4e487b7100000000000000000000000000000000000000000000000000000000600052603260045260246000fd5b906000526020600020906005020160040160008282546109489190611535565b925050819055506004600082815260200190815260200160002060003373ffffffffffffffffffffffffffffffffffffffff1673ffffffffffffffffffffffffffffffffffffffff16815260200190815260200160002060006101000a81549073ffffffffffffffffffffffffffffffffffffffff0219169055610a006040518060400160405280600981526020017f64656372656d656e740000000000000000000000000000000000000000000000815250610b39565b610b36565b600160008281548110610a41577f4e487b7100000000000000000000000000000000000000000000000000000000600052603260045260246000fd5b90600052602060002090600502016004016000828254610a6191906114df565b92505081905550336004600083815260200190815260200160002060003373ffffffffffffffffffffffffffffffffffffffff1673ffffffffffffffffffffffffffffffffffffffff16815260200190815260200160002060006101000a81548173ffffffffffffffffffffffffffffffffffffffff021916908373ffffffffffffffffffffffffffffffffffffffff160217905550610b356040518060400160405280600981526020017f696e6372656d656e740000000000000000000000000000000000000000000000815250610b39565b5b50565b610bcf81604051602401610b4d91906112a6565b6040516020818303038152906040527f41304fac000000000000000000000000000000000000000000000000000000007bffffffffffffffffffffffffffffffffffffffffffffffffffffffff19166020820180517bffffffffffffffffffffffffffffffffffffffffffffffffffffffff8381831617835250505050610da9565b50565b610c6a8282604051602401610be892919061133d565b6040516020818303038152906040527f9710a9d0000000000000000000000000000000000000000000000000000000007bffffffffffffffffffffffffffffffffffffffffffffffffffffffff19166020820180517bffffffffffffffffffffffffffffffffffffffffffffffffffffffff8381831617835250505050610da9565b5050565b610d08838383604051602401610c86939291906112f8565b6040516020818303038152906040527fe0e9ad4f000000000000000000000000000000000000000000000000000000007bffffffffffffffffffffffffffffffffffffffffffffffffffffffff19166020820180517bffffffffffffffffffffffffffffffffffffffffffffffffffffffff8381831617835250505050610da9565b505050565b610da58282604051602401610d239291906112c8565b6040516020818303038152906040527f319af333000000000000000000000000000000000000000000000000000000007bffffffffffffffffffffffffffffffffffffffffffffffffffffffff19166020820180517bffffffffffffffffffffffffffffffffffffffffffffffffffffffff8381831617835250505050610da9565b5050565b60008151905060006a636f6e736f6c652e6c6f679050602083016000808483855afa5050505050565b6040518060a0016040528060008152602001600073ffffffffffffffffffffffffffffffffffffffff1681526020016060815260200160008152602001600081525090565b828054610e23906115e7565b90600052602060002090601f016020900481019282610e455760008555610e8c565b82601f10610e5e57805160ff1916838001178555610e8c565b82800160010185558215610e8c579182015b82811115610e8b578251825591602001919060010190610e70565b5b509050610e999190610e9d565b5090565b5b80821115610eb6576000816000905550600101610e9e565b5090565b6000610ecd610ec88461143d565b611418565b905082815260208101848484011115610ee557600080fd5b610ef08482856115a5565b509392505050565b600081359050610f078161185b565b92915050565b600082601f830112610f1e57600080fd5b8135610f2e848260208601610eba565b91505092915050565b600081359050610f4681611872565b92915050565b600060208284031215610f5e57600080fd5b6000610f6c84828501610ef8565b91505092915050565b600060208284031215610f8757600080fd5b600082013567ffffffffffffffff811115610fa157600080fd5b610fad84828501610f0d565b91505092915050565b600060208284031215610fc857600080fd5b6000610fd684828501610f37565b91505092915050565b60008060408385031215610ff257600080fd5b600061100085828601610f37565b925050602061101185828601610ef8565b9150509250929050565b600061102783836111c0565b905092915050565b61103881611569565b82525050565b61104781611569565b82525050565b60006110588261147e565b61106281856114a1565b9350836020820285016110748561146e565b8060005b858110156110b05784840389528151611091858261101b565b945061109c83611494565b925060208a01995050600181019050611078565b50829750879550505050505092915050565b60006110cd82611489565b6110d781856114bd565b93506110e78185602086016115b4565b6110f081611780565b840191505092915050565b600061110682611489565b61111081856114ce565b93506111208185602086016115b4565b61112981611780565b840191505092915050565b60006111416007836114ce565b915061114c82611791565b602082019050919050565b60006111646034836114ce565b915061116f826117ba565b604082019050919050565b60006111876027836114ce565b915061119282611809565b604082019050919050565b60006111aa6000836114b2565b91506111b582611858565b600082019050919050565b600060a0830160008301516111d86000860182611236565b5060208301516111eb602086018261102f565b506040830151848203604086015261120382826110c2565b91505060608301516112186060860182611236565b50608083015161122b6080860182611236565b508091505092915050565b61123f8161159b565b82525050565b61124e8161159b565b82525050565b600061125f8261119d565b9150819050919050565b600060208201905061127e600083018461103e565b92915050565b6000602082019050818103600083015261129e818461104d565b905092915050565b600060208201905081810360008301526112c081846110fb565b905092915050565b600060408201905081810360008301526112e281856110fb565b90506112f1602083018461103e565b9392505050565b6000606082019050818103600083015261131281866110fb565b9050611321602083018561103e565b818103604083015261133381846110fb565b9050949350505050565b6000604082019050818103600083015261135781856110fb565b90506113666020830184611245565b9392505050565b6000602082019050818103600083015261138681611134565b9050919050565b600060208201905081810360008301526113a681611157565b9050919050565b600060208201905081810360008301526113c68161117a565b9050919050565b60006020820190506113e26000830184611245565b92915050565b60006040820190506113fd6000830185611245565b818103602083015261140f81846110fb565b90509392505050565b6000611422611433565b905061142e8282611619565b919050565b6000604051905090565b600067ffffffffffffffff82111561145857611457611751565b5b61146182611780565b9050602081019050919050565b6000819050602082019050919050565b600081519050919050565b600081519050919050565b6000602082019050919050565b600082825260208201905092915050565b600081905092915050565b600082825260208201905092915050565b600082825260208201905092915050565b60006114ea8261159b565b91506114f58361159b565b9250827fffffffffffffffffffffffffffffffffffffffffffffffffffffffffffffffff0382111561152a576115296116c4565b5b828201905092915050565b60006115408261159b565b915061154b8361159b565b92508282101561155e5761155d6116c4565b5b828203905092915050565b60006115748261157b565b9050919050565b600073ffffffffffffffffffffffffffffffffffffffff82169050919050565b6000819050919050565b82818337600083830152505050565b60005b838110156115d25780820151818401526020810190506115b7565b838111156115e1576000848401525b50505050565b600060028204905060018216806115ff57607f821691505b6020821081141561161357611612611722565b5b50919050565b61162282611780565b810181811067ffffffffffffffff8211171561164157611640611751565b5b80604052505050565b60006116558261159b565b91507fffffffffffffffffffffffffffffffffffffffffffffffffffffffffffffffff821415611688576116876116c4565b5b600182019050919050565b600061169e8261159b565b91506116a98361159b565b9250826116b9576116b86116f3565b5b828206905092915050565b7f4e487b7100000000000000000000000000000000000000000000000000000000600052601160045260246000fd5b7f4e487b7100000000000000000000000000000000000000000000000000000000600052601260045260246000fd5b7f4e487b7100000000000000000000000000000000000000000000000000000000600052602260045260246000fd5b7f4e487b7100000000000000000000000000000000000000000000000000000000600052604160045260246000fd5b6000601f19601f8301169050919050565b7f5761697420316d00000000000000000000000000000000000000000000000000600082015250565b7f547279696e6720746f207769746864726177206d6f7265206d6f6e657920746860008201527f616e2074686520636f6e7472616374206861732e000000000000000000000000602082015250565b7f4661696c656420746f207769746864726177206d6f6e65792066726f6d20636f60008201527f6e74726163742e00000000000000000000000000000000000000000000000000602082015250565b50565b61186481611569565b811461186f57600080fd5b50565b61187b8161159b565b811461188657600080fd5b5056fea26469706673582212207200a16a926358de846b2b8af289372bdfce3682a3a6b09814dfdcd9e588ee9964736f6c63430008040033",
  "linkReferences": {},
  "deployedLinkReferences": {}
}