{
  "_format": "hh-sol-artifact-1",
  "contractName": "Posting",
  "sourceName": "contracts/Posting.sol",
  "abi": [
    {
      "inputs": [],
      "stateMutability": "payable",
      "type": "constructor"
    },
    {
      "anonymous": false,
      "inputs": [
        {
          "indexed": true,
          "internalType": "address",
          "name": "from",
          "type": "address"
        },
        {
          "indexed": false,
          "internalType": "uint256",
          "name": "timestamp",
          "type": "uint256"
        },
        {
          "indexed": false,
          "internalType": "string",
          "name": "message",
          "type": "string"
        }
      ],
      "name": "NewPost",
      "type": "event"
    },
    {
      "inputs": [],
      "name": "getAllPosts",
      "outputs": [
        {
          "components": [
            {
              "internalType": "address",
              "name": "user",
              "type": "address"
            },
            {
              "internalType": "string",
              "name": "message",
              "type": "string"
            },
            {
              "internalType": "uint256",
              "name": "timestamp",
              "type": "uint256"
            }
          ],
          "internalType": "struct Posting.Post[]",
          "name": "",
          "type": "tuple[]"
        }
      ],
      "stateMutability": "view",
      "type": "function"
    },
    {
      "inputs": [],
      "name": "getTotalPosts",
      "outputs": [
        {
          "internalType": "uint256",
          "name": "",
          "type": "uint256"
        }
      ],
      "stateMutability": "view",
      "type": "function"
    },
    {
      "inputs": [
        {
          "internalType": "address",
          "name": "",
          "type": "address"
        }
      ],
      "name": "lastPostedAt",
      "outputs": [
        {
          "internalType": "uint256",
          "name": "",
          "type": "uint256"
        }
      ],
      "stateMutability": "view",
      "type": "function"
    },
    {
      "inputs": [
        {
          "internalType": "string",
          "name": "_message",
          "type": "string"
        }
      ],
      "name": "post",
      "outputs": [],
      "stateMutability": "nonpayable",
      "type": "function"
    }
  ],
  "bytecode": "0x60806040526200004f6040518060400160405280601c81526020017f506f7374506f7274616c202d20536d61727420436f6e747261637421000000008152506200007760201b6200060c1760201c565b606442446200005f9190620001c4565b6200006b919062000261565b60018190555062000308565b62000117816040516024016200008e919062000184565b6040516020818303038152906040527f41304fac000000000000000000000000000000000000000000000000000000007bffffffffffffffffffffffffffffffffffffffffffffffffffffffff19166020820180517bffffffffffffffffffffffffffffffffffffffffffffffffffffffff83818316178352505050506200011a60201b60201c565b50565b60008151905060006a636f6e736f6c652e6c6f679050602083016000808483855afa5050505050565b60006200015082620001a8565b6200015c8185620001b3565b93506200016e8185602086016200022b565b6200017981620002f7565b840191505092915050565b60006020820190508181036000830152620001a0818462000143565b905092915050565b600081519050919050565b600082825260208201905092915050565b6000620001d18262000221565b9150620001de8362000221565b9250827fffffffffffffffffffffffffffffffffffffffffffffffffffffffffffffffff0382111562000216576200021562000299565b5b828201905092915050565b6000819050919050565b60005b838110156200024b5780820151818401526020810190506200022e565b838111156200025b576000848401525b50505050565b60006200026e8262000221565b91506200027b8362000221565b9250826200028e576200028d620002c8565b5b828206905092915050565b7f4e487b7100000000000000000000000000000000000000000000000000000000600052601160045260246000fd5b7f4e487b7100000000000000000000000000000000000000000000000000000000600052601260045260246000fd5b6000601f19601f8301169050919050565b61113280620003186000396000f3fe608060405234801561001057600080fd5b506004361061004c5760003560e01c8063305611001461005157806351493c4f1461006f5780635fe226b41461009f5780638ee93cf3146100bd575b600080fd5b6100596100d9565b6040516100669190610bbb565b60405180910390f35b61008960048036038101906100849190610929565b61022a565b6040516100969190610cd4565b60405180910390f35b6100a7610242565b6040516100b49190610cd4565b60405180910390f35b6100d760048036038101906100d29190610952565b61024b565b005b60606002805480602002602001604051908101604052809291908181526020016000905b8282101561022157838290600052602060002090600302016040518060600160405290816000820160009054906101000a900473ffffffffffffffffffffffffffffffffffffffff1673ffffffffffffffffffffffffffffffffffffffff1673ffffffffffffffffffffffffffffffffffffffff16815260200160018201805461018690610eba565b80601f01602080910402602001604051908101604052809291908181526020018280546101b290610eba565b80156101ff5780601f106101d4576101008083540402835291602001916101ff565b820191906000526020600020905b8154815290600101906020018083116101e257829003601f168201915b50505050508152602001600282015481525050815260200190600101906100fd565b50505050905090565b60036020528060005260406000206000915090505481565b60008054905090565b42603c600360003373ffffffffffffffffffffffffffffffffffffffff1673ffffffffffffffffffffffffffffffffffffffff168152602001908152602001600020546102989190610de6565b106102d8576040517f08c379a00000000000000000000000000000000000000000000000000000000081526004016102cf90610cb4565b60405180910390fd5b42600360003373ffffffffffffffffffffffffffffffffffffffff1673ffffffffffffffffffffffffffffffffffffffff16815260200190815260200160002081905550600160008082825461032e9190610de6565b925050819055506103756040518060400160405280601681526020017f257320706f73746420772f206d7773736167652025730000000000000000000081525033836106a5565b600260405180606001604052803373ffffffffffffffffffffffffffffffffffffffff16815260200183815260200142815250908060018154018082558091505060019003906000526020600020906003020160009091909190915060008201518160000160006101000a81548173ffffffffffffffffffffffffffffffffffffffff021916908373ffffffffffffffffffffffffffffffffffffffff1602179055506020820151816001019080519060200190610434929190610809565b50604082015181600201555050606460015442446104529190610de6565b61045c9190610de6565b6104669190610f1d565b6001819055506104ad6040518060400160405280601681526020017f52616e646f6d20232067656e6572617465643a20256400000000000000000000815250600154610744565b6032600154116105b85760006509184e72a000905047811115610505576040517f08c379a00000000000000000000000000000000000000000000000000000000081526004016104fc90610c74565b60405180910390fd5b60003373ffffffffffffffffffffffffffffffffffffffff168260405161052b90610ba6565b60006040518083038185875af1925050503d8060008114610568576040519150601f19603f3d011682016040523d82523d6000602084013e61056d565b606091505b50509050806105b1576040517f08c379a00000000000000000000000000000000000000000000000000000000081526004016105a890610c94565b60405180910390fd5b50506105b9565b5b3373ffffffffffffffffffffffffffffffffffffffff167fd8c86c7877c3f1f8a40af6cf64a11fe867af887f2a1ad31aac849e36730425b04283604051610601929190610cef565b60405180910390a250565b6106a2816040516024016106209190610bdd565b6040516020818303038152906040527f41304fac000000000000000000000000000000000000000000000000000000007bffffffffffffffffffffffffffffffffffffffffffffffffffffffff19166020820180517bffffffffffffffffffffffffffffffffffffffffffffffffffffffff83818316178352505050506107e0565b50565b61073f8383836040516024016106bd93929190610bff565b6040516020818303038152906040527fe0e9ad4f000000000000000000000000000000000000000000000000000000007bffffffffffffffffffffffffffffffffffffffffffffffffffffffff19166020820180517bffffffffffffffffffffffffffffffffffffffffffffffffffffffff83818316178352505050506107e0565b505050565b6107dc828260405160240161075a929190610c44565b6040516020818303038152906040527f9710a9d0000000000000000000000000000000000000000000000000000000007bffffffffffffffffffffffffffffffffffffffffffffffffffffffff19166020820180517bffffffffffffffffffffffffffffffffffffffffffffffffffffffff83818316178352505050506107e0565b5050565b60008151905060006a636f6e736f6c652e6c6f679050602083016000808483855afa5050505050565b82805461081590610eba565b90600052602060002090601f016020900481019282610837576000855561087e565b82601f1061085057805160ff191683800117855561087e565b8280016001018555821561087e579182015b8281111561087d578251825591602001919060010190610862565b5b50905061088b919061088f565b5090565b5b808211156108a8576000816000905550600101610890565b5090565b60006108bf6108ba84610d44565b610d1f565b9050828152602081018484840111156108d757600080fd5b6108e2848285610e78565b509392505050565b6000813590506108f9816110e5565b92915050565b600082601f83011261091057600080fd5b81356109208482602086016108ac565b91505092915050565b60006020828403121561093b57600080fd5b6000610949848285016108ea565b91505092915050565b60006020828403121561096457600080fd5b600082013567ffffffffffffffff81111561097e57600080fd5b61098a848285016108ff565b91505092915050565b600061099f8383610b38565b905092915050565b6109b081610e3c565b82525050565b6109bf81610e3c565b82525050565b60006109d082610d85565b6109da8185610da8565b9350836020820285016109ec85610d75565b8060005b85811015610a285784840389528151610a098582610993565b9450610a1483610d9b565b925060208a019950506001810190506109f0565b50829750879550505050505092915050565b6000610a4582610d90565b610a4f8185610dc4565b9350610a5f818560208601610e87565b610a688161100a565b840191505092915050565b6000610a7e82610d90565b610a888185610dd5565b9350610a98818560208601610e87565b610aa18161100a565b840191505092915050565b6000610ab9603483610dd5565b9150610ac48261101b565b604082019050919050565b6000610adc602783610dd5565b9150610ae78261106a565b604082019050919050565b6000610aff600083610db9565b9150610b0a826110b9565b600082019050919050565b6000610b22600883610dd5565b9150610b2d826110bc565b602082019050919050565b6000606083016000830151610b5060008601826109a7565b5060208301518482036020860152610b688282610a3a565b9150506040830151610b7d6040860182610b88565b508091505092915050565b610b9181610e6e565b82525050565b610ba081610e6e565b82525050565b6000610bb182610af2565b9150819050919050565b60006020820190508181036000830152610bd581846109c5565b905092915050565b60006020820190508181036000830152610bf78184610a73565b905092915050565b60006060820190508181036000830152610c198186610a73565b9050610c2860208301856109b6565b8181036040830152610c3a8184610a73565b9050949350505050565b60006040820190508181036000830152610c5e8185610a73565b9050610c6d6020830184610b97565b9392505050565b60006020820190508181036000830152610c8d81610aac565b9050919050565b60006020820190508181036000830152610cad81610acf565b9050919050565b60006020820190508181036000830152610ccd81610b15565b9050919050565b6000602082019050610ce96000830184610b97565b92915050565b6000604082019050610d046000830185610b97565b8181036020830152610d168184610a73565b90509392505050565b6000610d29610d3a565b9050610d358282610eec565b919050565b6000604051905090565b600067ffffffffffffffff821115610d5f57610d5e610fdb565b5b610d688261100a565b9050602081019050919050565b6000819050602082019050919050565b600081519050919050565b600081519050919050565b6000602082019050919050565b600082825260208201905092915050565b600081905092915050565b600082825260208201905092915050565b600082825260208201905092915050565b6000610df182610e6e565b9150610dfc83610e6e565b9250827fffffffffffffffffffffffffffffffffffffffffffffffffffffffffffffffff03821115610e3157610e30610f4e565b5b828201905092915050565b6000610e4782610e4e565b9050919050565b600073ffffffffffffffffffffffffffffffffffffffff82169050919050565b6000819050919050565b82818337600083830152505050565b60005b83811015610ea5578082015181840152602081019050610e8a565b83811115610eb4576000848401525b50505050565b60006002820490506001821680610ed257607f821691505b60208210811415610ee657610ee5610fac565b5b50919050565b610ef58261100a565b810181811067ffffffffffffffff82111715610f1457610f13610fdb565b5b80604052505050565b6000610f2882610e6e565b9150610f3383610e6e565b925082610f4357610f42610f7d565b5b828206905092915050565b7f4e487b7100000000000000000000000000000000000000000000000000000000600052601160045260246000fd5b7f4e487b7100000000000000000000000000000000000000000000000000000000600052601260045260246000fd5b7f4e487b7100000000000000000000000000000000000000000000000000000000600052602260045260246000fd5b7f4e487b7100000000000000000000000000000000000000000000000000000000600052604160045260246000fd5b6000601f19601f8301169050919050565b7f547279696e6720746f207769746864726177206d6f7265206d6f6e657920746860008201527f616e2074686520636f6e7472616374206861732e000000000000000000000000602082015250565b7f4661696c656420746f207769746864726177206d6f6e65792066726f6d20636f60008201527f6e74726163742e00000000000000000000000000000000000000000000000000602082015250565b50565b7f576169742031356d000000000000000000000000000000000000000000000000600082015250565b6110ee81610e3c565b81146110f957600080fd5b5056fea264697066735822122073e5053820f513f6ce5bef40da0f33e125f509d22f78a58f8a520c7da9d850a864736f6c63430008040033",
  "linkReferences": {},
  "deployedLinkReferences": {}
}